:020000040800F2
:1000000000000220B5180008CD130008D113000825
:10001000D5130008D9130008DD1300080000000004
:10002000000000000000000000000000E1130008D4
:10003000E513000800000000E9130008ED130008B4
:100040000D1900080D1900080D1900080D190008F8
:100050000D1900080D1900080D1900080D190008E8
:100060000D1900080D1900080D19000841150008A8
:100070000D1900080D1900080D1900080D190008C8
:100080000D1900080D1900080D1900080D190008B8
:100090000D1900080D1900080D1900080D190008A8
:1000A0000D1900080D1900080D1900080D19000898
:1000B0000D190008D91500080D1900080D190008C0
:1000C0000D1900080D1900080D1900080D19000878
:1000D0000D1900080D1900080D1900080D19000868
:1000E0000D1900080D190008011500082117000856
:1000F0000D190008451500080D1900080D19000814
:100100000D1900080D1900080D1900080D19000837
:100110000D1900080D1900080D1900080D19000827
:100120000D1900080D1900080D1900080D19000817
:100130000D1900080D1900080D1900080D19000807
:100140000D1900080D1900080D19000835150008D3
:100150000D1900080D1900080D1900080D190008E7
:100160000D1900080D1900080D1900080D190008D7
:100170000D1900080D1900080D1900080D190008C7
:080180000D1900080D1900081B
:1001880040F2E013C2F200031A780AB9012018708D
:10019800704700BF40F2E010C2F2000008B50368E3
:1001A8002BB140F20003C0F2000303B1984708BD29
:1001B80081F0004102E000BF83F0004330B54FEA10
:1001C80041044FEA430594EA050F08BF90EA020F7D
:1001D8001FBF54EA000C55EA020C7FEA645C7FEA10
:1001E800655C00F0E2804FEA5454D4EB5555B8BF33
:1001F8006D420CDD2C4480EA020281EA030382EAA4
:10020800000083EA010180EA020281EA0303362D35
:1002180088BF30BD11F0004F4FEA01314FF4801C08
:100228004CEA113102D0404261EB410113F0004F1A
:100238004FEA03334CEA133302D0524263EB4303D1
:1002480094EA050F00F0A780A4F10104D5F1200E6F
:100258000DDB02FA0EFC22FA05F2801841F10001CA
:1002680003FA0EF2801843FA05F359410EE0A5F19E
:1002780020050EF1200E012A03FA0EFC28BF4CF0CF
:10028800020C43FA05F3C01851EBE37101F0004585
:1002980007D54FF0000EDCF1000C7EEB00006EEB92
:1002A8000101B1F5801F1BD3B1F5001F0CD349081C
:1002B8005FEA30004FEA3C0C04F101044FEA445273
:1002C80012F5800F80F09A80BCF1004F08BF5FEAFA
:1002D800500C50F1000041EB045141EA050130BDDA
:1002E8005FEA4C0C404141EB010111F4801FA4F17D
:1002F8000104E9D191F0000F04BF01460020B1FAD2
:1003080081F308BF2033A3F10B03B3F120020CDA09
:100318000C3208DD02F1140CC2F10C0201FA0CF0E7
:1003280021FA02F10CE002F11402D8BFC2F1200C4C
:1003380001FA02F120FA0CFCDCBF41EA0C01904002
:10034800E41AA2BF01EB0451294330BD6FEA04044B
:100358001F3C1CDA0C340EDC04F11404C4F1200236
:1003680020FA04F001FA02F340EA030021FA04F348
:1003780045EA030130BDC4F10C04C4F1200220FA9F
:1003880002F001FA04F340EA0300294630BD21FADD
:1003980004F0294630BD94F0000F83F4801306BFA3
:1003A80081F480110134013D4EE77FEA645C18BF97
:1003B8007FEA655C29D094EA050F08BF90EA020F2E
:1003C80005D054EA000C04BF1946104630BD91EA26
:1003D800030F1EBF0021002030BD5FEA545C05D129
:1003E8004000494128BF41F0004130BD14F5800468
:1003F8003CBF01F5801130BD01F0004545F0FE41DC
:1004080041F470014FF0000030BD7FEA645C1ABF10
:10041800194610467FEA655C1CBF0B46024650EA47
:10042800013406BF52EA033591EA030F41F4002173
:1004380030BD00BF90F0000F04BF0021704730B5F9
:100448004FF4806404F132044FF000054FF00001CE
:1004580050E700BF90F0000F04BF0021704730B58F
:100468004FF4806404F1320410F0004548BF404264
:100478004FF000013EE700BF42004FEAE2014FEAB9
:1004880031014FEA02701FBF12F07F4393F07F4F94
:1004980081F06051704792F0000F14BF93F07F4FC6
:1004A800704730B54FF4607401F0004521F0004109
:1004B80020E700BF50EA010208BF704730B54FF08F
:1004C80000050AE050EA010208BF704730B511F094
:1004D800004502D5404261EB41014FF4806404F1CC
:1004E80032045FEA915C3FF4DCAE4FF003025FEA4E
:1004F800DC0C18BF03325FEADC0C18BF033202EBD6
:10050800DC02C2F1200300FA03FC20FA02F001FA2F
:1005180003FE40EA0E0021FA02F11444C1E600BFCE
:1005280070B54FF0FF0C4CF4E06C1CEA11541DBF81
:100538001CEA135594EA0C0F95EA0C0F00F0DEF84C
:100548002C4481EA030621EA4C5123EA4C5350EA31
:10055800013518BF52EA033541F4801143F4801382
:1005680038D0A0FB02CE4FF00005E1FB02E506F013
:100578000042E0FB03E54FF00006E1FB03569CF068
:10058800000F18BF4EF0010EA4F1FF04B6F5007F6E
:1005980064F5407404D25FEA4E0E6D4146EB0606E0
:1005A80042EAC62141EA55514FEAC52040EA5E5069
:1005B8004FEACE2EB4F1FD0C88BFBCF5E06F1ED813
:1005C800BEF1004F08BF5FEA500E50F1000041EB4A
:1005D800045170BD06F0004646EA010140EA0200F7
:1005E80081EA0301B4EB5C04C2BFD4EB0C0541EA19
:1005F800045170BD41F480114FF0000E013C00F32E
:10060800AB8014F1360FDEBF002001F0004170BD51
:10061800C4F10004203C35DA0C341BDC04F114046A
:10062800C4F1200500FA05F320FA04F001FA05F2F6
:1006380040EA020001F0004221F0004110EBD370C3
:1006480021FA04F642EB06015EEA430E08BF20EAEF
:10065800D37070BDC4F10C04C4F1200500FA04F392
:1006680020FA05F001FA04F240EA020001F0004124
:1006780010EBD37041F100015EEA430E08BF20EA97
:10068800D37070BDC4F1200500FA05F24EEA020EDF
:1006980020FA04F301FA05F243EA020321FA04F00E
:1006A80001F0004121FA04F220EA020000EBD370C5
:1006B8005EEA430E08BF20EAD37070BD94F0000FC5
:1006C8000FD101F00046400041EB010111F4801FF9
:1006D80008BF013CF7D041EA060195F0000F18BFAA
:1006E800704703F00046520043EB030313F4801FE6
:1006F80008BF013DF7D043EA0603704794EA0C0FA0
:100708000CEA135518BF95EA0C0F0CD050EA4106B5
:1007180018BF52EA4306D1D181EA030101F0004132
:100728004FF0000070BD50EA410606BF104619465A
:1007380052EA430619D094EA0C0F02D150EA013666
:1007480013D195EA0C0F05D152EA03361CBF1046A7
:1007580019460AD181EA030101F0004141F0FE4146
:1007680041F470014FF0000070BD41F0FE4141F4CA
:10077800780170BD70B54FF0FF0C4CF4E06C1CEACA
:1007880011541DBF1CEA135594EA0C0F95EA0C0F7F
:1007980000F0A7F8A4EB050481EA030E52EA03353A
:1007A8004FEA013100F088804FEA03334FF080555B
:1007B80045EA131343EA12634FEA022245EA111588
:1007C80045EA10654FEA00260EF000419D4208BF39
:1007D800964244F1FD0404F5407402D25B084FEAE6
:1007E8003202B61A65EB03055B084FEA32024FF492
:1007F80080104FF4002CB6EB020E75EB030E22BFEF
:10080800B61A754640EA0C005B084FEA3202B6EBAE
:10081800020E75EB030E22BFB61A754640EA5C005D
:100828005B084FEA3202B6EB020E75EB030E22BFED
:10083800B61A754640EA9C005B084FEA3202B6EBEE
:10084800020E75EB030E22BFB61A754640EADC00AD
:1008580055EA060E18D04FEA051545EA16754FEA0F
:1008680006164FEAC30343EA52734FEAC2025FEA2D
:100878001C1CC0D111F4801F0BD141EA00014FF0BC
:1008880000004FF0004CB6E711F4801F04BF01438D
:100898000020B4F1FD0C88BFBCF5E06F3FF6AFAEA9
:1008A800B5EB030C04BFB6EB020C5FEA500C50F139
:1008B800000041EB045170BD0EF0004E4EEA1131BC
:1008C80014EB5C04C2BFD4EB0C0541EA045170BDC3
:1008D80041F480114FF0000E013C90E645EA060E07
:1008E8008DE60CEA135594EA0C0F08BF95EA0C0F35
:1008F8003FF43BAF94EA0C0F0AD150EA01347FF47D
:1009080034AF95EA0C0F7FF425AF104619462CE753
:1009180095EA0C0F06D152EA03353FF4FDAE1046B6
:10092800194622E750EA410618BF52EA43067FF407
:10093800C5AE50EA41047FF40DAF52EA43057FF497
:10094800EBAE12E74FF0FF3C06E000BF4FF0010CA2
:1009580002E000BF4FF0010C4DF804CD4FEA410C06
:100968007FEA6C5C4FEA430C18BF7FEA6C5C1BD0D3
:1009780001B050EA410C0CBF52EA430C91EA030F54
:1009880002BF90EA020F0020704710F1000F91EAB1
:10099800030F58BF994208BF90422CBFD8176FEA7F
:1009A800E37040F0010070474FEA410C7FEA6C5C4D
:1009B80002D150EA013C07D14FEA430C7FEA6C5C54
:1009C800D6D152EA033CD3D05DF8040B704700BF80
:1009D8008446104662468C461946634600E000BFCE
:1009E80001B5FFF7B7FF002848BF10F1000F01BDA0
:1009F8004DF808EDFFF7F4FF0CBF012000205DF86B
:100A080008FB00BF4DF808EDFFF7EAFF34BF0120EF
:100A180000205DF808FB00BF4DF808EDFFF7E0FF88
:100A280094BF012000205DF808FB00BF4DF808EDD9
:100A3800FFF7CEFF94BF012000205DF808FB00BF40
:100A48004DF808EDFFF7C4FF34BF012000205DF822
:100A580008FB00BF4FEA410212F5001215D211D56A
:100A68006FF47873B3EB625212D94FEAC12343F0A3
:100A7800004343EA505311F0004F23FA02F018BF25
:100A8800404270474FF00000704750EA013005D1EE
:100A980011F0004008BF6FF0004070474FF00000B1
:100AA800704700BF4FEA4102B2F1E04324BFB3F5FB
:100AB800001CDCF1FE5C0DD901F0004C4FEAC002CD
:100AC8004CEA5070B2F1004F40EB830008BF20F0B1
:100AD8000100704711F0804F21D113F13872BCBF6B
:100AE80001F00040704741F480114FEA5252C2F1C0
:100AF8001802C2F1200C10FA0CF320FA02F018BF09
:100B080040F001004FEAC1234FEAD32303FA0CFC5B
:100B180040EA0C0023FA02F34FEA4303CCE77FEAEA
:100B2800625307D150EA01331EBF4FF0FE4040F434
:100B38004000704701F0004040F0FE4040F40000E3
:100B4800704700BF80F0004002E000BF81F0004124
:100B580042001FBF5FEA410392EA030F7FEA226C5B
:100B68007FEA236C6AD04FEA1262D2EB1363C1BFEB
:100B7800D218414048404140B8BF5B42192B88BF5A
:100B8800704710F0004F40F4000020F07F4018BF7D
:100B9800404211F0004F41F4000121F07F4118BF9D
:100BA800494292EA030F3FD0A2F1010241FA03FC45
:100BB80010EB0C00C3F1200301FA03F100F000432D
:100BC80002D5494260EB4000B0F5000F13D3B0F1F5
:100BD800807F06D340084FEA310102F10102FE2A64
:100BE80051D2B1F1004F40EBC25008BF20F00100D4
:100BF80040EA03007047490040EB000010F4000F82
:100C0800A2F10102EDD1B0FA80FCACF1080CB2EB14
:100C18000C0200FA0CF0AABF00EBC2505242184373
:100C2800BCBFD0401843704792F0000F81F4000118
:100C380006BF80F400000132013BB5E74FEA4103EB
:100C48007FEA226C18BF7FEA236C21D092EA030F57
:100C580004D092F0000F08BF0846704790EA010FD1
:100C68001CBF0020704712F07F4F04D1400028BFFE
:100C780040F00040704712F100723CBF00F50000E0
:100C8800704700F0004343F0FE4040F40000704716
:100C98007FEA226216BF08467FEA236301464202C2
:100CA80006BF5FEA412390EA010F40F480007047D5
:100CB8004FF0000304E000BF10F0004348BF40427B
:100CC8005FEA000C08BF704743F0964301464FF0B7
:100CD80000001CE050EA010208BF70474FF0000313
:100CE8000AE000BF50EA010208BF704711F0004354
:100CF80002D5404261EB41015FEA010C02BF844624
:100D08000146002043F0B64308BFA3F18053A3F582
:100D18000003BCFA8CF2083AA3EBC25310DB01FAC9
:100D280002FC634400FA02FCC2F12002BCF1004F4D
:100D380020FA02F243EB020008BF20F001007047DE
:100D480002F1200201FA02FCC2F1200250EA4C0032
:100D580021FA02F243EB020008BF20EADC70704778
:100D68004FF0FF0C1CEAD0521EBF1CEAD15392EA86
:100D78000C0F93EA0C0F6FD01A4480EA010C400262
:100D880018BF5FEA41211ED04FF0006343EA5010BC
:100D980043EA5111A0FB01310CF00040B1F5000FFE
:100DA8003EBF490041EAD3715B0040EA010062F1AD
:100DB8007F02FD2A1DD8B3F1004F40EBC25008BF97
:100DC80020F00100704790F0000F0CF0004C08BFB5
:100DD80049024CEA502040EA51207F3AC2BFD2F182
:100DE800FF0340EAC250704740F400004FF0000390
:100DF800013A5DDC12F1190FDCBF00F000407047CA
:100E0800C2F10002410021FA02F1C2F1200200FA07
:100E180002FC5FEA310040F1000053EA4C0308BFCE
:100E280020EADC70704792F0000F00F0004C02BF1F
:100E3800400010F4000F013AF9D040EA0C0093F09A
:100E4800000F01F0004C02BF490011F4000F013BF4
:100E5800F9D041EA0C018FE70CEAD15392EA0C0F62
:100E680018BF93EA0C0F0AD030F0004C18BF31F0CD
:100E7800004CD8D180EA010000F00040704790F0A3
:100E8800000F17BF90F0004F084691F0000F91F047
:100E9800004F14D092EA0C0F01D142020FD193EA0D
:100EA8000C0F03D14B0218BF084608D180EA010095
:100EB80000F0004040F0FE4040F40000704740F071
:100EC800FE4040F4400070474FF0FF0C1CEAD0523F
:100ED8001EBF1CEAD15392EA0C0F93EA0C0F69D09B
:100EE800A2EB030280EA010C49024FEA402037D006
:100EF8004FF0805343EA111143EA10130CF00040FD
:100F08008B4238BF5B0042F17D024FF4000C8B42EC
:100F180024BF5B1A40EA0C00B3EB510F24BFA3EBCC
:100F2800510340EA5C00B3EB910F24BFA3EB91039C
:100F380040EA9C00B3EBD10F24BFA3EBD10340EAF6
:100F4800DC001B0118BF5FEA1C1CE0D1FD2A3FF63C
:100F580050AF8B4240EBC25008BF20F001007047F1
:100F68000CF0004C4CEA50207F32C2BFD2F1FF0394
:100F780040EAC250704740F400004FF00003013AC5
:100F880037E792F0000F00F0004C02BF400010F469
:100F9800000F013AF9D040EA0C0093F0000F01F07D
:100FA800004C02BF490011F4000F013BF9D041EA9F
:100FB8000C0195E70CEAD15392EA0C0F08D14202D2
:100FC8007FF47DAF93EA0C0F7FF470AF084676E7A5
:100FD80093EA0C0F04D14B023FF44CAF08466EE77E
:100FE80030F0004C18BF31F0004CCAD130F000424C
:100FF8007FF45CAF31F000437FF43CAF5FE700BFA4
:101008004FF0FF3C06E000BF4FF0010C02E000BFCC
:101018004FF0010C4DF804CD4FEA40024FEA41036E
:101028007FEA226C18BF7FEA236C11D001B052EA24
:10103800530C18BF90EA010F58BFB2EB030088BFEA
:10104800C81738BF6FEAE17018BF40F00100704759
:101058007FEA226C02D15FEA402C05D17FEA236C3B
:10106800E4D15FEA412CE1D05DF8040B704700BF82
:10107800844608466146FFE70FB5FFF7C9FF002819
:1010880048BF10F1000F0FBD4DF808EDFFF7F4FF52
:101098000CBF012000205DF808FB00BF4DF808EDEB
:1010A800FFF7EAFF34BF012000205DF808FB00BF0E
:1010B8004DF808EDFFF7E0FF94BF012000205DF830
:1010C80008FB00BF4DF808EDFFF7D2FF94BF0120E1
:1010D80000205DF808FB00BF4DF808EDFFF7C8FFDA
:1010E80034BF012000205DF808FB00BF42000ED28B
:1010F800B2F1FE4F0BD34FF09E03B3EB126209D44B
:101108004FEA002343F0004323FA02F070474FF000
:101118000000704712F1610F01D1420202D14FF075
:10112800FF3070474FF00000704700BF704700BFA6
:10113800704700BF704700BF704700BF704700BFCF
:10114800F0B50120002483B0C4F20204014605F082
:1011580005FE00264FF4D85302220327694620468D
:1011680000938DF804208DF805708DF806608DF8D1
:10117800076005F057FE204608210A2205F0D2FF35
:10118800204609210A2205F0CDFF20460B210A221C
:1011980005F0C8FF0A2220460C2105F0C3FF0125EF
:1011A8004FF480636946204600938DF806508DF809
:1011B80007508DF8057005F035FE0A210A462046CD
:1011C80005F0B0FF29464FF4804005F003FE80206B
:1011D800294605F0D7FD29464FF0805005F00EFE50
:1011E8003046314600F0F2FA03B0F0BD00B54FF4D6
:1011F800C06083B005F0FAFF01234321032201A850
:101208008DF804108DF805308DF806208DF807301C
:1012180005F0F6FF03B000BDC0EB001044F6251141
:10122800C200C2F29241A1FB0213D01A03EB500292
:10123800920802F00301012372B141B1012903D0E0
:10124800022918BF0223013301339A4203D304331E
:101258009A42FCD270477047704700BF4DF2C043B6
:10126800C0F2010344F6251103FB00FCC2F29241CF
:10127800A1FB0C10C0EB0C0200EB52039B0803F01F
:101288000301012273B141B1012903D0022918BF1A
:10129800022201320132934203D304329342FCD238
:1012A80070477047704700BF4FF46053C4F20203A1
:1012B8000022186840F0010119609A60186843F22A
:1012C800100120F0847C2CF48030C2F200411860B8
:1012D8005960186882B020F480211960DA600192A0
:1012E8000092186840F480321A601A4603E00198A8
:1012F800B0F5A06F09D0116801F40033009301988C
:10130800411C0191009B002BF1D04FF4605CC4F2AA
:10131800020CDCF8003013F4003208BF009201D050
:10132800012100910098012808D04FF46D43CEF2B6
:1013380000034FF00060986002B070474FF46053AC
:10134800C4F202034FF4E04C186CC4F2000C40F0F5
:1013580080511964DCF8002042F48040CCF8000089
:10136800996899609A6842F400409860996845F2D3
:10137800084041F4A052C0F240709A605860196861
:1013880041F080721A6019460A684FF4605312F0EF
:10139800007FC4F20203F7D04FF4705CC4F2020C71
:1013A80040F20560CCF80000996821F003029A60C9
:1013B800986840F002019960996801F00C02082AC7
:1013C800FAD1B2E7704700BFFEE700BFFEE700BFF3
:1013D800FEE700BFFEE700BF704700BF704700BFD1
:1013E800704700BF2DE9F84F40F6B015C2F200056E
:1013F80000242E4695F88011A14212D0204600F014
:1014080023FD28B304EB440306EB83039A68FAB17F
:1014180098688047204600F0C5FC95F88011A142E5
:10142800ECD1002000F030FA0128074613D040F232
:10143800E914C2F2000440F2E4152678C2F200056D
:10144800771C2E68FFB201362E602770BDE8F88F32
:101458000134E4B2CEE740F2E914C2F20004237882
:10146800642B0BD040F2E415C2F200055A1C2E681A
:10147800D7B201362E602770BDE8F88F40F2EA181F
:10148800C2F2000840F2E41598F80090DFF864A072
:1014980009EB4903C2F200059900881D2E68AAF1DC
:1014A800020B41F6BC6108225844C2F200014AF816
:1014B800236006F061FB09F101035FFA83FC4FF03A
:1014C8000009BCF1150F84F8009088F800C0BAD163
:1014D8000A2258464FF480710AF8027C0AF8012C57
:1014E80000F042FF267888F80090771CFFB22E683B
:1014F800A9E700BF0202002010B540F20034C2F292
:101508000004A37A63B14EF61050CEF200000168D1
:1015180021F006020260FFF7C7FE204604F096FDA0
:101528004FF48020BDE8104005F05ABE40F200306C
:10153800C2F2000003F09EB9704700BF4FF400509C
:1015480070B5C4F20000022105F0DCFB00B970BDE3
:101558004FF40050C4F20000022141F6C86405F0BF
:10156800DDFBC2F200044FF40050C4F2000005F0A5
:10157800B9FB237BEBB94FF40050C4F2000005F02F
:10158800B1FBA16844F24022C0F20F024DF683631A
:1015980002FB01FCC4F21B33A3FB0C239A0C12FAC6
:1015A80080F14FF40050C4F20000BDE8704005F02F
:1015B80065BB40F2E815C2F200050120287002F070
:1015C80003FC00210846297000F0EEF8D3E700BFBD
:1015D8004FF4806010B5C4F20000022105F092FBC0
:1015E800F8B141F6F4744FF48060C2F20004C4F21A
:1015F8000000022105F092FB63787BB12378002B71
:1016080058D00023C4F202031A8B1FFA82FE4EF050
:10161800400CA3F818C0012000F0B8F80020607052
:1016280010BD4FF48060C4F20000042105F06AFB8D
:10163800D8B14FF480600421C4F2000005F06EFBBD
:1016480041F6F473C2F20003D97859B19A78002AA6
:1016580041D1C4F20202508B1FFA80FE4EF0800C7A
:10166800A2F81AC00020D87010BD4FF48060C4F2F0
:101678000000082105F046FB20B34FF480600821E4
:10168800C4F2000005F04AFB41F6F473C2F200030D
:10169800597961B11A794ABB4FF4806EC4F2020ECF
:1016A800BEF81A1088B240F0010CAEF81AC000213A
:1016B800597110BDC4F20203598B88B240F0400240
:1016C8005A83A8E74FF48060C4F20000102105F0A7
:1016D80019FBB8B910BD0022C4F20202B2F818E032
:1016E8001FFA8EFC4CF080011183BBE74FF4806237
:1016F800C4F20202108B1FFA80FE4EF0010CA2F811
:1017080018C0D4E74FF48060C4F200001021BDE88F
:10171800104005F003BB00BF704700BF10B547F687
:10172800B03EC0F6000E82B0044601215EF82000EB
:1017380005F014FB47F6C03CC0F6000C40F2200050
:101748003CF81410C2F20000012300918DF8043017
:1017580000228DF8073050F824008DF80620022367
:1017680069468DF8053005F05DFB02B010BD00BF7D
:1017780040F2200C47F6C031C2F2000CC0F600015E
:101788005CF8202031F810301383704740F2200CA9
:1017980047F6C031C2F2000CC0F600015CF8202008
:1017A80031F810305383704740F22002C2F2000231
:1017B80047F6C03C52F82030C0F6000C59693CF896
:1017C800100080EA01025A61704700BF70B547F601
:1017D800A835C0F6000586B004460E4655F8200028
:1017E800012105F0BBFA01214FF4804005F0F2FA1F
:1017F80047F6AC30C0F6000040F2300330F8142051
:1018080006A9C2F20003002541F80C2D53F8240064
:101818008DF810508DF8135005F004FB012E01D0FF
:1018280006B070BD47F6C83047F6CC3EC0F6000E8D
:10183800C0F600001EF80410005D05F073FA47F6C4
:10184800D43CC0F6000C01A83CF814108DF80850E0
:10185800082201918DF809208DF80A6005F07AFCBC
:1018680047F6D033C0F600030F2113F804C08DF8F3
:10187800151005A88DF814C08DF816108DF817608E
:1018880005F0BEFCCCE700BF08B540F2300247F6D1
:10189800AC330146C2F20002C0F6000352F8200041
:1018A80033F8111005F038FC08BD00BF002103E033
:1018B8000E4B5B58435004310D480E4B42189A4268
:1018C800F6D30D4A02E0002342F8043B0B4B9A4240
:1018D800F9D30B48016841F470010160FFF7E4FC9B
:1018E80006F026F900F010F870470000009C000888
:1018F80000000020E0010020E0010020542000202A
:1019080088ED00E0FEE7000030B540F2003083B01B
:1019180040F2000540F2340240F2880341F6C86400
:10192800C2F20000C2F20002C2F200030121C2F2B8
:101938000004C2F20005009504F0A6FF00F06CF95F
:1019480002F084FF6421A16000F0E8FF40F6A8558A
:1019580041F67C730022C2F20003C4F2A002012007
:10196800C2F2000500212260C4F202010724421ECF
:1019780018702C601A73196100F0DCFD00F0DAFDB4
:10198800FAE700BF08289DBF47F6D833C0F6000322
:1019980053F820000020704710B508282DD8DFE83C
:1019A80000F005090D1115191D212500012001461A
:1019B80005F0D4F90220012105F0D0F90420012115
:1019C80005F0CCF90820012105F0C8F91020012103
:1019D80005F0C4F92020012105F0C0F940200121BB
:1019E80005F0BCF98020012105F0B8F94FF48070AA
:1019F8000121BDE8104005F0B1B910BD122340F235
:101A080054000B80C2F20000704700BF042340F26C
:101A180050000B80C2F20000704700BF0A4647F62C
:101A2800FC3042F2140108B5C0F60000C2F2000111
:101A380004F0C4FD42F21400C2F2000008BD00BF69
:101A48000A4647F6104042F2140108B5C0F60000F5
:101A5800C2F2000104F0B2FD42F21400C2F200002A
:101A680008BD00BF08B50A4670B147F6304042F2DB
:101A78001401C0F60000C2F2000104F09FFD42F21A
:101A88001400C2F2000008BD47F6204042F21401DB
:101A9800C0F60000C2F2000104F090FD42F214000A
:101AA800C2F2000008BD00BF10B542F21404C2F231
:101AB800000447F640400A46C0F60000214604F0FC
:101AC8007DFD204610BD00BF08B50A4670B147F637
:101AD800704042F21401C0F60000C2F2000104F0A6
:101AE8006DFD42F21400C2F2000008BD47F65440F2
:101AF80042F21401C0F60000C2F2000104F05EFDDB
:101B080042F21400C2F2000008BD00BF202340F2D8
:101B180068000B80C2F20000704700BF012970B551
:101B28000C46054601D0002070BD90F81231032BF9
:101B3800F9D140F6F006C2F200064022317803F0EF
:101B4800C3FB304600F0C2FB2846214632464023FC
:101B580003F0DCFAE7E700BF08B5812103F064FB76
:101B6800002008BD10B50C7814F0600406D14A783E
:101B78000A2A0BD00B2A12D0204610BD202C01D0E7
:101B8800002010BD04F006FD022010BD40F2EC114B
:101B9800C2F20001012204F039FD204610BD40F2D6
:101BA800EC12C2F200028B782046136010BD00BF11
:101BB80010B58121044603F093FA2046012103F071
:101BC8008FFA002010BD00BF10B5812104464022C5
:101BD800032303F065FA012140220323204603F082
:101BE8005FFA40F6F00220460121C2F200024023CB
:101BF80003F08CFA002010BD38B590F81241032C80
:101C08000D46134601D0022038BD81212A4603F033
:101C1800A7FA002038BD00BF40F21C01C2F2000143
:101C280044F6D35C0B68C1F2620C10B4ACFB03320F
:101C38004EF21003CEF2000390094FF46D41441E9A
:101C4800CEF200015C600022F02440F6B01081F86A
:101C58002340C2F200009A60114607244FF4C27272
:101C68001C6010BC05F093BF70B540F6B013C2F20B
:101C78000003024693F8800120283DD0012093F804
:101C88008041ECB10026344605E0013493F88051D8
:101C9800E4B2A5420FD004EB440503EB850C9CF895
:101CA80004508542F1D1013493F88051E4B20136F1
:101CB800A542F6B2EFD11EB10130C0B22028DED164
:101CC80093F8804104EB440443F8242093F88021DE
:101CD80002EB420C03EB8C02107193F880C10CEB01
:101CE8004C0203EB820CCCF8081093F88021511CAD
:101CF800CAB283F8802170BD1A3800F07BFB00203F
:101D080070BD00BF70B440F6B0140022C2F20004E7
:101D18001FE0511C01EB410C04EB8C06CBB2367969
:101D2800864222D04B1C03EB430C04EB8C01DBB244
:101D380091F804C0844518D0D31C03EB430104EB8D
:101D4800810CDBB29CF8041081420ED00432202AA8
:101D580026D002EB420504EB850340F6B01519794D
:101D68008142D3B2C2F20005D3D195F88021511E29
:101D7800C8B285F8800195F88021934210D05D1C87
:101D880005EB450104EB810007C803EB430C04EBAA
:101D98008C0383E8070094F880C1EBB26345EED169
:101DA80070BC704730B440F6B015C2F20005034667
:101DB80095F88021511EC8B285F8800195F88021D8
:101DC800934210D05C1C04EB440105EB810007C86A
:101DD80003EB430C05EB8C0383E8070095F880C1FF
:101DE800E3B29C45EED130BC704700BF40F6B0135B
:101DF80030B40021C2F200031AE04C1C04EB440585
:101E080003EB85021579854219D0621C02EB420466
:101E180003EB84021479844211D0CC1C04EB440CEB
:101E280003EB8C021479844209D00431202909D0AB
:101E380001EB410203EB820214798442DDD1106880
:101E480030BC70470020FBE740F6B013C2F2000335
:101E580000EB400053F820205AB153F82020511EBF
:101E680043F8201053F82000D0F1010038BF0020BB
:101E780070470120704700BF2DE9F0410446006813
:101E8800D4F80480A7680146FEF76AFF4146064673
:101E98004046FEF765FF01463046FEF759FE3946D3
:101EA80006463846FEF75CFF01463046FEF750FE10
:101EB800FEF7E2FA05F036FAFEF7F4FD00252946AA
:101EC8000646FFF7E1F880B920683146FEF7FCFFC7
:101ED800314620606068FEF7F7FF31466060A06811
:101EE800FEF7F2FFA060BDE8F081A560656025609F
:101EF800BDE8F08138B5044600680D46FEF730FFAE
:101F0800294620606068FEF72BFF29466060A068BC
:101F1800FEF726FFA06038BD70B504460068154678
:101F28000E46FEF71DFF286060683146FEF718FF71
:101F38006860A0683146FEF713FFA86070BD00BF57
:101F480038B5044600680D46FEF7BEFF29462060F6
:101F58006068FEF7B9FF29466060A068FEF7B4FF25
:101F6800A06038BD0346006870B501465E689D688C
:101F7800FEF7F6FE314604463046FEF7F1FE01460E
:101F88002046FEF7E5FD294604462846FEF7E8FE0A
:101F980001462046FEF7DCFDFEF76EFA05F0C2F9B1
:101FA800FEF780FD70BD00BF70B505460C460068A1
:101FB80009681646FEF7CAFD306061686868FEF772
:101FC800C5FD7060A868A168FEF7C0FDB06070BD6F
:101FD80070B505460C46006809681646FEF7B8FD58
:101FE800306061686868FEF7B3FD7060A868A16832
:101FF800FEF7AEFDB06070BDD0F800C0C1F800C0FB
:1020080042684A6083688B60704700BFF8B5054630
:102018000C46406889681646FEF7A2FEA96807467E
:102028006068FEF79DFE01463846FEF78FFD30607A
:102038002168A868FEF794FE29680746A068FEF79D
:102048008FFE01463846FEF781FD7060616828689A
:10205800FEF786FE696807462068FEF781FE01469E
:102068003846FEF773FDB060F8BD00BF70B5044692
:102078000D4600680968FEF773FE696806466068E1
:10208800FEF76EFE01463046FEF762FDA968064679
:10209800A068FEF765FE01463046FEF759FD70BDA3
:1020A80008B5FEF7E9F918A3D3E90023FEF738FAD3
:1020B800FEF7D0FC0028B8BF00F5FA5004DBB0F5F5
:1020C800FA5FC8BFA0F5FA50B0F57A6F10DD41F29B
:1020D8007071884247F68C43D4BFA0F57A604FF4FC
:1020E800FA60C0F6000353F8200000F1004008BD74
:1020F800B0F5FA6F47F68C42C8BFC0F57A60C0F6F3
:10210800000252F8200008BDD00D374BF5E493408B
:1021180008B5FEF7B1F91AA3D3E90023FEF700FAD0
:10212800FEF798FC10F5FA6048BF00F5FA5004D4A1
:10213800B0F5FA5FC8BFA0F5FA50B0F57A6F10DDB8
:1021480041F27071884247F68C43D4BFA0F57A609B
:102158004FF4FA60C0F6000353F8200000F1004085
:1021680008BDB0F5FA6F47F68C42C8BFC0F57A6073
:10217800C0F6000252F8200008BD00BFAFF300808F
:10218800D00D374BF5E4934040F63430C2F20000EE
:1021980000214C2205F0FBBC40F63433C2F20003A8
:1021A8009864704740F63433C2F2000358647047AD
:1021B80070B50078831E032B09D8DFE803F0501FA1
:1021C800090240F63434C2F200040020606470BD95
:1021D80040F63434C2F2000440F6301EC2F2000E5B
:1021E800626C01258EF800500725704606218EF88E
:1021F8000150CEF8022000F0B7F8E6E740F63014B8
:10220800C2F20004012341F67C75C2F20005237076
:1022180041F6BC6106230C226370C2F20001A01CC7
:1022280005F0AAFCA868FEF747FD4FF48041C4F208
:102238001C61FEF749FE296AC4F80E000846FEF73D
:102248003BFD4FF48041C4F21C61FEF73DFE1A21AC
:10225800C4F812002046BDE8704000F085B840F68A
:102268003431C2F2000140F6301491F8406091F820
:1022780040C091F84020B000C51CEDB2C2F2000485
:10228800AB095E1C26700326E01C9200667084F879
:1022980002C005F071FC20462946BDE8704000F0F8
:1022A80063B800BF10B540F68034C2F2000420467F
:1022B800002140F2022205F06AFC002084F80102A5
:1022C80094F8013284F8003210BD00BF10B540F612
:1022D8008034C2F20004014694F8003233B902781F
:1022E80084F8002294F8000208282AD894F80102F9
:1022F80083014022E01805F03FFC94F80122501CAD
:10230800C3B284F8013294F8011294F800C240F67E
:1023180080336145C2F2000300D010BD5A78511EC7
:10232800032906D8DFE801F0021A16120D4800F05A
:10233800B9F8002384F8013294F801E284F800E245
:1023480010BD0120BDE8104000F054B8054800F069
:10235800CDF8EEE7034800F031F9EAE70148FFF766
:1023680027FFE6E7820B0020034640F200300A46CA
:10237800C2F200001946FFF73FBC00BF704700BF1C
:1023880038B50C46417871B98068FFF76DFC054691
:1023980074B92846FFF72AFD0028FAD12846FFF726
:1023A800B1FC002038BD002038BD00F0B5F828B1D8
:1023B8002846FFF71BFD0028F7D1EFE7012038BDBD
:1023C80040F68450C2F200000246002342F8043B63
:1023D800111D436041F8043B0A4642F8043B42F8A9
:1023E800043B42F8043B42F8043B42F8043B1380A8
:1023F800704700BF10B540F68452C2F2000203468F
:102408001178B1B1B2F802C01FFA8CF098422DD001
:102418000021144607E004EB4100B0F802C01FFA9F
:102428008CF0984222D0013192F800C0C9B28C4594
:10243800F1D1117802EB410CACF802301078411C54
:10244800C8B210701278202A11D040F6301CC2F29F
:10245800000C0124604604218CF800408CF80140EF
:10246800ACF80230BDE81040FFF77EBF10BD40F663
:102478003013C2F2000301221A705A70022204219A
:1024880018465A80FFF770FFBDE8104002F0DEB929
:1024980040F68453C2F200031878D0F1010038BF27
:1024A8000020704770B50378012B00D070BD40F64E
:1024B8008451C2F2000140F630140B7808785A00B3
:1024C800D51CEDB2C2F20004AB095A1C0223A0705D
:1024D8002270637011F8022BE01C520005F04CFBCF
:1024E80020462946BDE87040FFF73EBF0378012B20
:1024F80002D0022B03D07047013000F089BA0130B6
:1025080001F0B0BF08B501F07BFF20B102F0B8F8C8
:10251800003818BF012008BD40F6AC53C2F20003D2
:102528001878704740F6AC53C2F2000300221A70C4
:10253800704700BF2DE9F04740F6B057C2F20007D8
:1025480007F5885640F6AC54C2F20004B146B51CF3
:102558004FF0440A06F1040808E0FFF7D3FF40B142
:10256800318828888AB283B29A4204D12378002B12
:10257800F3D1BDE8F087FFF78BFF0028F6D0B9F854
:1025880000E01FFA8EFC0AFB0C700121002200F00B
:102598008FF90028EAD1B9F800201FFA82FE0AFB59
:1025A8000E7CDCF80410C8F80010B9F80000431CD1
:1025B8009AB23F2A88BF00223280D7E72DE9F04F30
:1025C80005460078431E81B0082B0DD8DFE813F0CC
:1025D8000F003500E0000C011A0121012901090052
:1025E8004001994A0020506001B0BDE8F08F964A3A
:1025F80040F6301310885188C2F2000301241FFAF4
:1026080080FC89B21C7004248C455C7000F04E81FB
:10261800118850881FFA81FC83B29C45C0F039812B
:1026280013885288991A8BB2884820F802390421F5
:1026380001B0BDE8F04FFFF797BE95F80180B8F1FB
:10264800000FD1D0804E344608F1FF3B34F8022FFA
:10265800B6F80090511C88B21FFA89FC3F2888BF41
:1026680000208445A6F588590BF0010B00F008817D
:1026780021881FFA81FA0AEB0A1E4FF0020A442247
:1026880009EB8E0005EB0A0105F076FA23885F1C3A
:102698001FFA87FC0127BCF13F0F88BF4FF0000CE1
:1026A800B845A4F800C09FD0BBF1000F25D0B4F8FE
:1026B80000E032880EEB07031FFA83FCBCF13F0FE2
:1026C80088BF4FF0000C90B2604500F0D980238895
:1026D8009AB202EB021C05F14601442209EB8C0078
:1026E80005F04AFA2088C719B9B23F2988BF0021E6
:1026F800D045574621803FF477AF2188B6F800C00F
:10270800481C83B23F2B88BF00231FFA8CFE9E45CE
:1027180000F0B680238807EB071C9AB202EB021E72
:1027280005EB8C010231442209EB8E0005F024FAF6
:102738002088431C9AB23F2A88BF00222280218821
:10274800B6F800C0481C83B23F2B88BF00231FFA8D
:102758008CF201379A42FFB200F09280208807EB92
:10276800071C83B203EB031E05EB8C0102314422E4
:1027780009EB8E0005F000FA22880137501C81B25F
:10278800FFB23F2988BF0021B8452180B5D12BE78A
:102798002D4A40F630135088B2F800C0C2F2000348
:1027A800012480B21FFA8CF11C70052488425C70E9
:1027B80078D05088411E8AB23F2A67D840F6B05177
:1027C80002EB0210C2F2000101EB800CDCF80420DD
:1027D800C3F8022040F63010C2F20000062101B012
:1027E800BDE8F04FFFF7C0BD40F6AC50164BC2F243
:1027F8000000002101701980B3F800C01FFA8CF2A4
:102808005A80F1E640F6AC53C2F2000301221A7076
:10281800EAE640F6AC5CC2F2000C00218CF800102D
:10282800E2E6094840F63013C2F200034268012488
:102838001C701846082406215C70C3F8022001B0F9
:10284800BDE8F04FFFF790BDB01E00203209002010
:1028580040F63431C2F2000140F6301CC2F2000CDE
:102868008A6C01230924604606218CF800308CF814
:102878000140CCF8022001B0BDE8F04FFFF774BD6D
:10288800042001B0BDE8F04FFFF7B4BD403A92B262
:1028980094E71088B2F802C083B24033CCEB03024D
:1028A80093B2C1E60022C3F8022093E74023BBE6B7
:1028B80038B504460D46BAB96068FFF76DFC237851
:1028C800022B19D0032B20D0012B04D06068FFF70E
:1028D80069FC002038BD29462046FFF751FD606895
:1028E800FFF760FC002038BDFFF71CFE6068FFF7AB
:1028F80053FC2378022BE5D12946204601F07EFFC0
:102908006068FFF74FFC002038BD2946204600F0DC
:10291800EBFF6068FFF746FC002038BDF0B541F6D4
:10292800C865C2F200058BB0A968002968D00121EA
:102938004FF4807004F03AFA002401262D2109A8EA
:102948008DF824108DF825408DF826608DF82760C5
:1029580004F056FC0AA94FF4005021F8104DC4F2B7
:1029680000004FF6FF770797ADF81A40ADF8204002
:1029780003F0BAFF40F21C0CC2F2000C4DF683675C
:10298800DCF80020C4F21B37A7FB0220C30C591E39
:102998004FF400503246C4F2000089B204F00EF839
:1029A800AA68ADF8044044F24020C0F20F0000FBD2
:1029B80002F3A7FB03274FF40050C4F2000001A95B
:1029C800BF0CADF80660ADF81040039704F00AF8A4
:1029D8004FF40050C4F20000214604F057F94FF4B8
:1029E8000050C4F200000221324604F07DF94FF491
:1029F8000050C4F20000314603F0E4FF0BB0F0BD14
:102A08004FF40050C4F2000003F0DCFFF6E700BF0B
:102A180008B50378022B26D0032B12D0012B00D047
:102A280008BD40F6A853C2F2000341F6C86219680F
:102A3800D0F80100C2F2000241F0020110601960F2
:102A480008BD40F6A85CC2F2000C41F6C862DCF88A
:102A58000010D0F80130C2F2000241F004015360C6
:102A6800CCF8001008BD41F6C86ED0F80120C2F2BB
:102A7800000ECEF80820FFF751FF40F6A85CC2F21E
:102A8800000CDCF8003043F00100CCF8000008BD71
:102A980041F6C86CC2F2000C6146002341F8043BC1
:102AA80041F6BC62081DC2F20002CCF8043011469F
:102AB80040F8043B036041F8043B53604B60FFF768
:102AC8002DBF00BF000000002DE9F04F41F6BC67A4
:102AD800C2F200079BB0054600683968FEF736F871
:102AE8006A68796817901046FEF730F8AB68B968DD
:102AF80018901846FEF72AF8199017A8FFF732FA27
:102B0800039017A8FFF7B8F9A96917A814AAFFF73F
:102B180003FAE96917A811AAFFF7FEF9A8690021C5
:102B2800FEF7B2FA4FF00008E0B92869E968AC6925
:102B3800FEF70CF8FDF7A0FCA1A3D3E90023FDF7ED
:102B4800EFFC8046894620462146FEF701F8FDF74E
:102B580093FC02460B4640464946FDF70BFEFDF73F
:102B6800A1FF8046E8690021FEF78EFA4FF00009C0
:102B7800E0B928696969EC69FDF7E8FFFDF77CFCB5
:102B88008FA3D3E90023FDF7CBFC82468B46204672
:102B98002146FDF7DDFFFDF76FFC02460B46504668
:102BA8005946FDF7E7FDFDF77DFF8146A869EC680A
:102BB8004146FEF7D5F84146FEF7D2F8FDF75CFC32
:102BC8007FA3D3E90023FDF7D5FD82468B46204637
:102BD8004146FEF7C5F8FDF74FFC02460B46504646
:102BE8005946FDF7EBFAFDF75DFF8246E8692C6967
:102BF800494600F10040FEF7B3F84946FEF7B0F841
:102C0800FDF73AFC6EA3D3E90023FDF7B3FDCDE948
:102C1800000149462046FEF7A3F8FDF72DFC0246C1
:102C28000B46DDE90001FDF7C9FAFDF73BFF8346D6
:102C380059465046FDF78CFF0399FEF74DFA41F6C9
:102C4800C866C2F20006002840F0C7804046FDF77B
:102C580013FC5DA3D3E90023FDF78CFDFDF722FFEC
:102C680041F6D86401460EAA14A8C2F20004FFF780
:102C780053F90E9BE3630F9B2366109B09F10040F9
:102C8800C4F88430FDF7F8FB4FA3D3E90023FDF720
:102C980071FDFDF707FF0EAA014611A8FFF73CF9E1
:102CA8000E9B23640F9B6366109B0BAAC4F88830A5
:102CB80017A85146FFF730F938680B99FDF748FF18
:102CC800A06478680C99FDF743FFE066B8680D9931
:102CD800FDF73EFF0346C4F8903008AA17A85946E6
:102CE800FFF71AF928680899FDF730FFE06468686B
:102CF8000999FDF72BFF2067A8680A99FDF726FFB9
:102D0800C4F89400296917A805AAFFF705F9059BD7
:102D18006365069BA367079BC4F89C30E96817A8FE
:102D280005AAFFF7F9F8059B069AA365E267079AD3
:102D38000023C4F8A0202373C4F81080C4F81490AA
:102D48006360237028690021FEF79EF9002841D1AD
:102D58002B69039851469846FDF7F8FE5946FDF74A
:102D6800F5FE4146FEF7B0F8A061002262733968AB
:102D7800174861642B682365A76362737968A16645
:102D88006B686367E0656273B968C4F88C10AB68F8
:102D9800021D0121C4F89830C4F88020317305E081
:102DA800FFF7BAFB40B1FFF773FB28B1307B00286F
:102DB800F6D11BB0BDE8F08F002030730120F8E792
:102DC800182D4454FB210940DE45BEC93CBD2340B3
:102DD800C01E00200020A061C7E741F6C866C2F205
:102DE80000064FF081413068D5F80CA0EC686A699C
:102DF8006B6991469846FDF7B3FF0399FDF7B0FF5D
:102E0800FDF73AFBCDE9000121465046FDF7A8FF42
:102E1800414604464846FDF7A3FF01462046FDF714
:102E280097FEFDF729FB4AA3D3E90023FDF778FBBA
:102E380002460B46DDE90001FDF7C0F946A3D3E9D8
:102E48000023FDF797FC04F06DFAFDF72BFE2861CF
:102E58002869E9683468FDF779FEFDF70DFB3CA3A6
:102E6800D3E90023FDF75CFB8046894620462146CE
:102E7800FDF76EFEFDF700FB02460B46404649464D
:102E8800FDF778FCFDF70EFE80462869696934680D
:102E9800FDF75CFEFDF7F0FA2DA3D3E90023FDF75B
:102EA8003FFB82468B4620462146FDF751FEFDF743
:102EB800E3FA02460B4650465946FDF75BFCFDF720
:102EC800F1FD414681463068EC68FDF749FF41460F
:102ED800FDF746FFFDF7D0FA1DA3D3E90023FDF760
:102EE80049FC82468B4620464146FDF739FFFDF7EF
:102EF800C3FA02460B4650465946FDF75FF9FDF7FF
:102F0800D1FD824630682C69494600F10040FDF742
:102F180027FF4946FDF724FFFDF7AEFA0CA3D3E9D6
:102F28000023FDF727FCCDE9000149462046FDF7BF
:102F380017FFFDF7A1FA02460B46DDE90001FDF790
:102F48003DF9FDF7AFFD834680E600BFAFF3008093
:102F5800182D4454FB210940182D4454FB211940D5
:102F68002DE9F04F41F6BC64C2F2000495B0276821
:102F78006668A36811970BAA11A9139305461296C0
:102F8800FFF712F80BA8FEF7EDFF06460BA8FEF7B1
:102F980073FF0BA80EA9FFF72FF84FF07C513046AE
:102FA800FDF7DEFE01460BA8FEF7A4FF0BA90A46B3
:102FB80005F10C0711A8FFF70BF8394608AA0BA86A
:102FC800FEF7F2FF08A8FEF757FF05AA11A9384631
:102FD800FEF7EAFF05A8FEF74FFFA96905A8FEF767
:102FE80089FFDDF820B0DDF83C80DDF83890099FD6
:102FF8000BF1004A41465046FDF7B2FE39460246FB
:1030080048460192FDF7ACFE019B01461846FDF7C4
:103018009FFD00210290FEF737F8002840F0BB80A2
:10302800069ADDF814B0019211465046FDF798FE55
:10303800594682463846FDF793FE01465046FDF74D
:1030480087FD0299FDF740FF594607464046FDF7C0
:1030580087FE019980464846FDF782FE01464046B4
:10306800FDF774FD0299FDF72FFFFDF705FA88A318
:10307800D3E90023FDF754FA824638468B46FDF71C
:10308800FBF902460B4650465946FDF749FA804679
:1030980030468946FDF7F0F902460B464046494658
:1030A800FDF768FBFDF7FEFC0646314608A8FEF76B
:1030B80021FF3046FDF7E0F902460B4650465946D7
:1030C800FDF758FB41F6D866FDF7ECFCC2F20006A6
:1030D8000023737373600223337008993061B463FB
:1030E8000746FDF73DFEFDF7C7F96BA3D3E90023BB
:1030F800FDF740FBFDF7D6FC119BF0633364059B9D
:10310800674C73642B680999B3643846F465FDF716
:1031180027FEFDF7B1F960A3D3E90023FDF72AFBE9
:10312800FDF7C0FC129B30667366069B0A99B3666E
:103138006B680434F3663846C6F88040FDF710FE25
:10314800FDF79AF954A3D3E90023FDF713FBFDF724
:10315800A9FC139BC6F88400C6F88830079BC6F8FC
:103168008C30AB6841F6C864C2F20004C6F89030EF
:103178000123237305E0FFF7CFF940B1FFF788F982
:1031880028B1207B0028F6D115B0BDE8F08F0020CB
:1031980020730120F8E70A99DDF840C001F1004AE0
:1031A80051464046CDF808C0FDF7DAFD02990346BE
:1031B80038460193FDF7D4FD01460198FDF7C8FC98
:1031C80000210390FDF760FF30BB069BDDF81CB0C3
:1031D800019319465046FDF7C3FD594682463846C5
:1031E800FDF7BEFD01465046FDF7B2FC0399FDF719
:1031F8006BFE594607464046FDF7B2FD019A8146E7
:1032080011460298FDF7ACFD01464846FDF79EFCC5
:103218000399FDF759FE28E751464846FDF7A0FDFA
:10322800029907465846FDF79BFD01463846FDF7CB
:103238008FFC00218046FDF727FF18BB059A5046F2
:1032480011460192FDF78CFD079982465846FDF715
:1032580087FD01465046FDF77BFC4146FDF734FEED
:10326800079907464846FDF77BFD01998146029874
:10327800FDF776FD01464846FDF768FC4146FDF737
:1032880023FEF2E600200746EFE600BFAFF300801A
:10329800182D4454FB210940DE45BEC93CBD2340DE
:1032A800C01E0020AFF300802DE9F04F41F6BC6A44
:1032B8000546C2F2000A41F6D860AFB00021A42248
:1032C800C2F2000004F063FCDAF80010DAF80470C7
:1032D800DAF808302C978E4628AA2BA92846CDF86C
:1032E800ACE02D9305F10C06FEF772FE28A84FF00E
:1032F8008041FEF725FE25AA31462846FEF768FEDE
:1033080025A84FF08041FEF71BFE3046294622AA29
:10331800FEF74AFE2BA829461FAAFEF745FE1FA95D
:103328001CAA22A8FEF772FE1CA8FEF7A5FD1FA87E
:103338001CA919AAFEF76AFE16AA1CA922A8FEF75C
:1033480065FE19A8FEF798FD16A8FEF795FD199FCA
:10335800DDF85C80DDF858901A9E41463846FDF746
:10336800FFFC314683464846FDF7FAFC01465846BD
:10337800FDF7ECFB00218346FDF786FE002840F0B0
:103388007D8125992898FDF7E1FB01463046FDF738
:10339800E7FC269904462998FDF7D8FB01463846EC
:1033A800FDF7DEFC01462046FDF7D0FB5946FDF748
:1033B8008BFD0446214619A813AAFEF7ADFD13A8F4
:1033C800024628A9FEF704FEAE69EC692B6A13963B
:1033D80010AA13A92BA815931494FEF7E5FD10A8BD
:1033E800FEF7C0FD074610A8FEF746FD22A8FEF727
:1033F80043FD1FA8FEF740FD1FA922A8FEF736FED1
:10340800FDF73AF800230022C3F6F0738046894698
:10341800FDF716FB002840F02C8100234046494662
:103428000022CBF6F073FDF7EDFA002840F0218179
:10343800AB6B686A09933946FDF746FD3946834602
:10344800A86AFDF741FD0590E86A3946FDF73CFD9D
:103458000B90286B3946FDF737FD0890686B3946A5
:10346800FDF732FD059904465846FDF76FFBFDF759
:1034780003F89BA3D3E90023FDF752F88046089888
:1034880089460146FDF764FBFCF7F6FF02460B464A
:1034980040464946FDF76EF9FDF704FB0B9920F00D
:1034A80000485846FDF752FBFCF7E6FF8CA3D3E92A
:1034B8000023FDF735F8CDE9020121462046FDF746
:1034C80047FBFCF7D9FF02460B46DDE90201FDF791
:1034D80051F9FDF7E7FA414620F000490898FDF751
:1034E8003FFC4146FDF73CFCFCF7C6FF7CA3D3E953
:1034F8000023FDF73FF9CDE9020141460598FDF7A4
:103508002FFCFCF7B9FF02460B46DDE90201FCF788
:1035180055FE04F100440A94FDF7C4FA49460290A6
:103528000A98FDF71DFC4946FDF71AFCFCF7A4FFB5
:103538006BA3D3E90023FDF71DF9CDE90601494640
:103548005846FDF70DFCFCF797FF02460B46DDE9F0
:103558000601FCF733FEFDF7A5FA069006990298D6
:10356800FDF7F6FA0999FDF7B7FD41F6C866C2F20C
:103578000006002840F0EC8041F6D864C2F200044E
:103588000DAA1CA810A9FEF741FD4FF0010C00235D
:1035980084F800C041466373089823736360CDF8CC
:1035A80004C0FDF7DDFBFCF767FF4FA3D3E9002359
:1035B800FDF7E0F8FDF776FA03460A99A362484654
:1035C800FDF7CEFBFCF758FF47A3D3E90023FDF72F
:1035D800D1F8FDF767FA0023E0620699C4F8308055
:1035E8000998C4F83490A361FDF7B0FA029B2062F1
:1035F800E361099B6362059BC4F810B06361139B88
:10360800C4F838A0A76463640D9B2364109BE3642B
:10361800EA68374BE263149AE365E766A2660E9A96
:103628006266119A22672A6904332266C4F88030D8
:10363800159BC4F89070C4F88C300F9BC4F8883080
:10364800129BC4F894306B69C4F88430DDF804C068
:1036580086F80CC0307B48B1FEF75EFF18B1FEF764
:1036680017FF0028F6D10022327301202FB0BDE8E1
:10367800F08F4046494603F007FED9E61898DDF872
:103688006CB0059059464046FDF76AFB059980469F
:103698003046FDF765FB01464046FDF757FA002125
:1036A8008046FDF7F1FC28BB27992A98FDF74EFACA
:1036B80001463046FDF754FB269981462998FDF7C7
:1036C80045FA01465846FDF74BFB01464846FDF7CB
:1036D8003DFA4146FDF7F8FB04466BE6AFF3008080
:1036E800182D4454FB210940DE45BEC93CBD23408A
:1036F800C01E002059464846FDF732FB059906468C
:103708003846FDF72DFB01463046FDF71FFA00212C
:103718000646FDF7B9FC00287FF44CAE27992A9895
:10372800FDF714FA01463846FDF71AFB25990746B6
:103738002898FDF70BFA01465846FDF711FB01469C
:103748003846FDF703FA3146FDF7BEFB044631E67D
:1037580041F6C866C2F200064FF081413068FDF7B5
:10376800FFFA3946FDF7B0FB0999FDF7F9FAFCF7BE
:1037780083FE8046059889460146FDF7F1FA04461E
:103788000B980146FDF7ECFA01462046FDF7E0F9F3
:10379800FCF772FE50A3D3E90023FCF7C1FE0246F2
:1037A8000B4640464946FCF709FD4DA3D3E90023E3
:1037B800FCF7E0FF03F0B6FDFDF774F933680599EF
:1037C8001C468346FDF7C2F9FCF756FE42A3D3E92F
:1037D8000023FCF7A5FE8046894620462146FDF7D2
:1037E800B7F93946FDF770FBFCF746FE02460B4673
:1037F80040464946FCF7BEFFFDF754F933680B997C
:1038080020F0004858461C46FDF7A0F9FCF734FEA6
:1038180031A3D3E90023FCF783FECDE90201214659
:103828002046FDF795F93946FDF74EFBFCF724FED7
:1038380002460B46DDE90201FCF79CFFFDF732F971
:10384800336820F0004939461846FDF73DFB4146EC
:10385800FDF786FA4146FDF783FAFCF70DFE1EA335
:10386800D3E90023FCF786FFCDE90201059841461C
:10387800FDF776FAFCF700FE02460B46DDE9020189
:10388800FCF79CFCFDF70EF902903068394600F110
:103898000040FDF719FB4946FDF762FA4946FDF776
:1038A8005FFAFCF7E9FD0CA3D3E90023FCF762FFFC
:1038B800CDE9060149465846FDF752FAFCF7DCFD0A
:1038C80002460B46DDE90601FCF778FCFDF7EAF84D
:1038D800069051E6AFF30080182D4454FB210940AF
:1038E800182D4454FB2119404378012B07D003D3EA
:1038F800022B07D0002070470830FFF7E5B80830E2
:10390800FFF7D2BC0830FFF72BBB00BF0000000058
:103918002DE9F04741F6D866C2F20006054686B0A2
:103928000020B468FDF7B0FF78B9337B022B0ED0C6
:10393800307B012800F0AD8030690021FDF7A4FB41
:1039480000284ED006B0BDE8F08700BFFAE77069DE
:103958000021FDF799FB0028F4D105EBC5052046A9
:10396800FCF78AFD06EB850553A3D3E90023FCF792
:10397800D7FDD5F83890EF6CD5F840807669CDE959
:1039880000013046FCF778FD02460B46DDE90001F0
:10399800FCF7F0FEFDF786F8FEF782FB8246384614
:1039A800FCF76AFDCDE902014046FCF765FDCDE96B
:1039B800040151463046FDF7D3F9FCF75DFD024698
:1039C8000B46DDE90001FCF7F7FB02460B46DDE993
:1039D8000401FCF7A5FD6D6D02460B46DDE9020109
:1039E80042E005EBC5052046FCF746FD06EB8505DC
:1039F80031A3D3E90023FCF793FDD5F838906F6C19
:103A0800D5F83C803669CDE900013046FCF734FD35
:103A180002460B46DDE90001FCF7ACFEFDF742F873
:103A2800FEF73EFB82463846FCF726FDCDE902014B
:103A38004046FCF721FDCDE9040151463046FDF72B
:103A48008FF9FCF719FD02460B46DDE90001FCF78A
:103A5800B3FB02460B46DDE90401FCF761FD0246B3
:103A68000B46DDE90201AD6DFCF7A8FB06460F46E3
:103A780028462146FDF774F9FCF7FEFC02460B4682
:103A880030463946FCF79AFBFDF70CF8C9F80000F8
:103A980058E705EBC50506EB85062146B46BB76C00
:103AA800706DFDF75DF901463846FDF751F8206065
:103AB80048E700BFAFF30080182D4454FB210940AC
:103AC8002DE9F04F41F6C86141F6D864C2F200040E
:103AD800C2F2000165686268886883186360A0693B
:103AE800616A85B0FDF7EEFA002800F08580666A05
:103AF8000125A6616573A669A56BA76C3046FEF71C
:103B080007FBE26C834630469046FEF7C9FA236C01
:103B1800666C8246414658469946FDF721F9494662
:103B280080465046FDF71CF901464046FDF710F85F
:103B380001463846FDF714F93146FDF709F82860C3
:103B4800002000F0EFFBA669E56DE76E3046FEF752
:103B5800DFFA216F834630468846FEF7A1FA82468F
:103B6800606EA66E814641465846FDF7F9F849460B
:103B780083465046FDF7F4F801465846FCF7E8FF3F
:103B880001463846FDF7ECF83146FCF7E1FF2860BE
:103B9800012000F0C7FBA669D4F88050D4F89070D3
:103BA8003046FEF7B5FAD4F894208346304690465E
:103BB800FEF776FAD4F88830D4F88C60824641460D
:103BC80058469946FDF7CCF8494680465046FDF7D9
:103BD800C7F801464046FCF7BBFF01463846FDF7EB
:103BE800BFF83146FCF7B4FF2860022000F09AFBCA
:103BF800607B05B0BDE8F08F2846FDF759F84FF413
:103C08001051C4F67411FDF75FF994F80CC0BCF1BB
:103C1800020F05461BD094F80CE0BEF1010F00F02E
:103C2800B280206B0021FDF72FFA002867D0A06929
:103C3800E16941F6D865C2F20005FDF743FA0028AC
:103C48003FF459AF002201236A602B7353E7606B7E
:103C58000021FDF719FA00287FF44DAF2846FCF73C
:103C68000BFC57A3D3E90023FCF75AFC276AD4F8C6
:103C78002C80666B824630468B46FCF7FDFB02467D
:103C88000B4650465946FCF775FDFCF70BFFFEF74F
:103C980007FA81463846FCF7EFFBCDE900014046BC
:103CA800FCF7EAFBCDE9020149463046FDF758F832
:103CB800FCF7E2FB02460B4650465946FCF77CFAF5
:103CC80002460B46DDE90201FCF72AFC02460B46D8
:103CD800DDE90001FCF772FA26698046894630461C
:103CE8002946FDF73DF8FCF7C7FB02460B46404660
:103CF8004946FCF763FAFCF7D5FEA061FBE62846C7
:103D0800FCF7BAFB2EA3D3E90023FCF709FCA76A4A
:103D1800266B804630468946FCF7AEFB02460B46CA
:103D280040464946FCF726FDFCF7BCFEFEF7B8F90D
:103D380082463846FCF7A0FBCDE9000130465146E3
:103D4800FDF70EF8FCF798FB02460B46404649463D
:103D5800FCF732FA02460B46DDE90001FCF7E0FB0E
:103D680066698046894630462946FCF7F9FFFCF724
:103D780083FB02460B4640464946FCF71FFAFCF710
:103D880091FEA06153E7E76920692946FCF7E8FF3F
:103D980001463846FCF7DCFEA061A069216AFDF700
:103DA80091F900283FF4A7AE606B0021FDF76CF98C
:103DB80000287FF4A0AE00210220616020739AE6FB
:103DC800182D4454FB2109402DE9F04F41F6C865F0
:103DD800C2F2000587B02B7B13B907B0BDE8F08F9E
:103DE80041F6D864C2F200042678012E5FD004D3CD
:103DF800022E61D000212973EFE76368AA68D01802
:103E080060606068FCF754FF4FF41051C4F67411F9
:103E1800FDF75AF801460020A160FFF779FD002060
:103E280000F080FA0120FFF773FD012000F07AFA14
:103E38000220FFF76DFD022000F074FAA0686169A6
:103E4800FDF740F980B194F80CC0BCF1020F0BD11A
:103E5800A06B216D0160E36D626F1A60D4F8800079
:103E6800D4F898100160C5E7A068A16941F6D86543
:103E7800C2F20005FDF726F940B195F80CE0BEF155
:103E8800010F03D1002302226B602A73A068216905
:103E980041F6D864C2F20004FDF714F900289CD05A
:103EA800237B002B99D101216360217395E7FFF7EC
:103EB80007FE002891D09DE76368AA68D31863605D
:103EC8006068FCF7F5FE4FF41051C4F67411FCF766
:103ED800FBFFA060D4F808A0A36BD4F8408003933C
:103EE8005046FCF7C9FA8CA3D3E90023FCF718FB6A
:103EF800D4F83C902769CDE900013846FCF7BCFAB4
:103F080002460B46DDE90001FCF734FCFCF7CAFD6C
:103F1800FEF7C6F883464046FCF7AEFACDE9040141
:103F28004846FCF7A9FA8046894638465946FCF7C0
:103F380017FFFCF7A1FA02460B46DDE90001FCF782
:103F48003BF902460B4640464946FCF7E9FA024669
:103F58000B46DDE90401FCF731F9676C80468946B8
:103F680050463946FCF7FCFEFCF786FA02460B463B
:103F780040464946FCF722F9FCF794FD039B18607C
:103F8800002000F0CFF9D4F808A0E36DD4F86480DD
:103F980003935046FCF770FA5FA3D3E90023FCF7BC
:103FA800BFFAD4F860902769CDE900013846FCF7DC
:103FB80063FA02460B46DDE90001FCF7DBFBFCF780
:103FC80071FDFEF76DF883464046FCF755FACDE9DA
:103FD80004014846FCF750FA804689463846594657
:103FE800FCF7BEFEFCF748FA02460B46DDE9000185
:103FF800FCF7E2F802460B4640464946FCF790FAC1
:1040080002460B46DDE90401FCF7D8F8A76E8046A6
:10401800894650463946FCF7A3FEFCF72DFA0246BE
:104028000B4640464946FCF7C9F8FCF73BFD039BA5
:104038001860012000F076F9D4F808A0D4F8803090
:10404800D4F8888003935046FCF716FA32A3D3E9D4
:104058000023FCF765FAD4F884902769CDE90001BC
:104068003846FCF709FA02460B46DDE90001FCF781
:1040780081FBFCF717FDFEF713F883464046FCF773
:10408800FBF9CDE904014846FCF7F6F98046894674
:1040980038465946FCF764FEFCF7EEF902460B4633
:1040A800DDE90001FCF788F802460B464046494620
:1040B800FCF736FA02460B46DDE90401FCF77EF808
:1040C800D4F88C708046894650463946FCF748FE3D
:1040D800FCF7D2F902460B4640464946FCF76EF813
:1040E800FCF7E0FC039B1860304600F01BF9A06861
:1040F8002169FCF7E7FF00283FF46FAEA26BA06CC4
:104108001060E36DE16E1960D4F88020D4F8900057
:1041180010606FE6AFF30080182D4454FB2109406E
:104128002DE9F0474768044638468946FCF7C4FD40
:104138004FF48041C4F21C61FCF7C6FE41F6BC6531
:10414800C2F200058046414655F829002668FCF76A
:10415800FDFC20F0004A3046FCF7AAFD4FF48041F0
:10416800C4F21C61FCF7B0FE01465046FCF7AAFFFA
:1041780000284AD055F8290041460125FCF7ACFF34
:1041880000283DD0EDB2002D37D1BE1B6660E37C20
:10419800AB421DD000BF00BF00BF00BF00BF00BFC3
:1041A80000BF00BF00BF00BF00BF00BF00BF00BF0F
:1041B80000BF00BF00BF00BF00BF00BF00BF00BFFF
:1041C80000BF00BF00BF00BF00BF00BF00BF00BFEF
:1041D800A07CE57408B185F00105C5B1E368B4F8C1
:1041E80010E0B3F818C04EEA0C018AB21A83207A9C
:1041F8000121BDE8F04700F045BABE196660C6E780
:104208000025EDB2002DC0D0F7E7BDE8F087E368E0
:10421800218AB3F81AC041EA0C0290B25883E6E743
:104228000120704700234360C374704770B505468A
:104238000878431E82B00C46042B32D8DFE803F01E
:10424800033C424733004B78072B03D90820FEF77D
:10425800D1F863782B72A078FDF794FBE860E378D7
:10426800012616FA03F02882A078FDF795FB298A23
:10427800E86800910023032269468DF805208DF82F
:1042880004608DF806308DF8073002F0CBFD94F805
:1042980004C0D4F80510BCF1000218BF0122AA74AA
:1042A800296002B070BD4A78B2F1000C18BF4FF017
:1042B800010C85F812C0F4E7D1F80100FCF716FFED
:1042C8002860EEE74B78072B1ED82B72E9E7487871
:1042D800FDF758FBE860A378012616FA03F0288258
:1042E8006078FDF759FB298AE868009100230322CA
:1042F80069468DF804608DF806308DF805208DF834
:10430800073002F08FFDCCE70820FEF773F86378DA
:104318002B72C6E7704700BF01207047704700BF87
:10432800704700BF41F67C73C2F2000300EB400205
:10433800014603EBC20013F83230012B02D0022BE6
:1043480003D070470430FFF7EBBE0430FFF7E2BF3D
:1043580010B541F67C74C2F2000400217822204690
:1043680003F015FC2378012B39D0022B02D1201D34
:10437800FFF7D4FF237E012B2DD0022B02D11C483E
:10438800FFF7CCFF94F83030012B20D0022B02D15C
:104398001848FFF7C3FF94F84830012B0BD0022BC5
:1043A80002D11548FFF7BAFF94F86030012B09D005
:1043B800022B18D010BD1048FFF734FF94F8603076
:1043C800012BF5D10D48BDE81040FFF72BBF094878
:1043D800FFF728FFDFE70648FFF724FFD2E7201D95
:1043E800FFF720FFC6E70548BDE81040FFF796BF76
:1043F800981F0020B01F0020C81F0020E01F0020C9
:1044080038B541F67C750024C2F200050BE0022B9A
:1044180021D0012318460134E4B2052C0CBF002337
:1044280003F00103B3B104EB440305EBC30015F833
:104438003330012BEBD10430FFF7F2FE013400F0EA
:1044480001000346E4B2052C0CBF002303F001036E
:10445800002BE8D138BD0430FFF75EFF00F0010003
:104468000346D8E70378012B014602D0022B10D06F
:1044780070478378012B23D0022B21D0427841F654
:104488007C73C2F2000302EB420C002103F83C10DB
:104498007047407841F67C7CC2F2000C00EB400388
:1044A8000CEBC3001CF83330012B13D002D20720C9
:1044B800FDF7A0BF022BDBD104300231FFF730BF7C
:1044C800487841F67C72C2F2000200EB400102F823
:1044D8003130704704300231FFF7A8BE2DE9F043B0
:1044E80041F6F47EC2F2000E7746002547F8045BD9
:1044F80087B0CEF80450022001217D6002F056FCFE
:104508004020012102F052FC0120014602F026FC65
:104518000220012102F022FC032428460127C022A0
:1045280003A98DF81140C4F202004FF4806403928D
:104538008DF810708DF812508DF8135002F072FC3F
:10454800204603A9C4F20004C4F202004CF2030698
:104558004FF4C058C4F20008039602F063FC4FF60B
:10456800FF73204669460193ADF80050ADF8085036
:10457800ADF8025002F0B8F94046694602F0B4F9C5
:1045880040F21C02C2F200024DF629191168C6F267
:104598004269A9FB0136700E42F20006431EC2F2C0
:1045A800000699B23A464FF03209204602F006FA60
:1045B8003146204635807780C6F80890B58102F0EC
:1045C80011FA2046082102F061FB4046314602F00C
:1045D80009FA4046294602F059FB2046314602F0C6
:1045E80057FA2046294602F05BFB4046314602F066
:1045F8004FFA4046294602F053FB2046314602F066
:10460800A1FA2046294602F057FB2046314602F01F
:10461800F1FA2046294602F059FB2046494602F0A5
:104628002DFB2046494602F02BFB2046494602F066
:1046380029FB4946204602F027FB1D2205A88DF8D4
:1046480014208DF815508DF816508DF8177002F05B
:10465800D7FD2B2305A88DF8143002F0D1FD204694
:104668003A461E2102F040FB2046394602F0AAF9DC
:104678004046394602F0A6F907B0BDE8F08300BF0E
:104688000120704700284FD10023C4F20203588B41
:1046980082B242F0400CA3F81AC000BF00BF00BFAE
:1046A80000BF00BF00BF00BF00BF00BF00BF00BF0A
:1046B80000BF00BF00BF00BF00BF00BF00BF00BFFA
:1046C80000BF00BF00BF00BF00BF00BF00BF00BFEA
:1046D80000BF00BF00BF00BF00BF00BF00BF00BFDA
:1046E80000BF00BF00BF00BF00BF00BF00BF00BFCA
:1046F80000BF00BF00BF00BF00BF00BF00BF00BFBA
:1047080000BF00BF00BF00BF00BF00BF00BF00BFA9
:1047180000BF00BF00BF00BF00BF00BF198B88B239
:1047280040F040021A837047012800D070470023E8
:10473800C4F20203B3F81AC01FFA8CF141F08000EA
:10474800588300BF00BF00BF00BF00BF00BF00BF4D
:1047580000BF00BF00BF00BF00BF00BF00BF00BF59
:1047680000BF00BF00BF00BF00BF00BF00BF00BF49
:1047780000BF00BF00BF00BF00BF00BF00BF00BF39
:1047880000BF00BF00BF00BF00BF00BF00BF00BF29
:1047980000BF00BF00BF00BF00BF00BF00BF00BF19
:1047A80000BF00BF00BF00BF00BF00BF00BF00BF09
:1047B80000BF00BF00BF00BF00BF00BF00BF00BFF9
:1047C80000BF00BF1A8B1FFA82FC4CF080011983CE
:1047D800704700BF10B50120FCF7A0FF0020FCF7D0
:1047E8009DFF0220FCF79AFF0320FCF797FF0020AB
:1047F8000146BDE81040FCF7E9BF00BF08B54378A3
:10480800012B18D00DD3022B09D140F2B40E90F829
:1048180008C0C2F2000E1EF80C00FCF7C5FF00200D
:1048280008BD40F2B403027AC2F20003985CFCF7B8
:104838009FFF002008BD40F2B401C2F20001007AD7
:10484800085CFCF7A3FF002008BD00BF10B5FDF70A
:104858009BFCFDF727FDFDF7B3FDFDF78FFDFFF787
:10486800B9FFFEF715F9FFF739FEBDE81040FFF76D
:104878006FBD00BF2DE9F04F83B0064601F084F804
:1048880010B903B0BDE8F08F304601F085F88146D5
:10489800B9F1000FF5D0C9F3074101F00800C0B223
:1048A800002840F02581C9F3074C0CF0040E5FFA8C
:1048B8008EF3002B6ED109F0020C5FFA8CF313B162
:1048C800F16802224A61C9F3076202F0800C5FFABC
:1048D8008CF3B3B1B07A002840F02F82326940F2ED
:1048E800B80EC2F2000E5168DEF8003021F0010067
:1048F8005060996930468847F0684FF0004242613D
:104908000120C9F3072202F0080C5FFA8CF3002B90
:1049180040F0E98109F0080C5FFA8CF3002B40F0B5
:10492800D48109F0100C5FFA8CF1002940F0A781BE
:10493800C9F3072101F0100C5FFA8CF3002B40F04B
:104948006081C9F3072202F0200C5FFA8CF3002B78
:1049580040F03E81C9F3074101F0100C5FFA8CF278
:10496800002A40F02681C9F3074202F0200C5FFAC2
:104978008CF3002B85D040F2B80EC2F2000E304600
:10498800DEF80020136A9847F1684FF40010486178
:10499800012076E7304601F031FB8246002800F01E
:1049A800A58040F2B800C2F20000374634464FF006
:1049B800000B0090CDF80490B0461AF0010F00F0FB
:1049C8008A80D8F810305FFA8BF61969586B08EBB3
:1049D800860930FA06F5D9F81820E801926800F03F
:1049E800FF0C4CEA010909EA0205EDB215F0010FC6
:1049F80040F0D58105F004095FFA89F313B1BA696B
:104A08000425956005F00800C1B211B1BB690825FD
:104A18009D6005F0100C5FFA8CF212B1B96910258F
:104A28008D6005F020095FFA89F010B1BB69202577
:104A38009D6005F0400C5FFA8CF212B1B96940250F
:104A48008D6005F002095FFA89F010B1BB69022593
:104A58009D6005F08005EDB2002D3CD0D4F82C11F6
:104A6800D4F83001BB69D4F82021D3F818900D1A76
:104A7800954234BFAC4694460CF1030C1FFA89F9F1
:104A8800B9EB9C0F25D9814223D911B3D4F824114D
:104A980006E0D4F82C51AA421BD2AD1AD4F8202132
:104AA800954228BF1546ABB23246404600F0D2FBCD
:104AB800D4F82411D4F83021BB694919AA18C4F8CC
:104AC8002411C4F830219869033580B2B0EB950FF2
:104AD800DFD880269E60283404375FEA5A0A02D05D
:104AE8000BF1010B69E7DDF8049046460120E2E688
:104AF800304601F071FA0446002858D040F2B80B4D
:104B08003546B0460027C2F2000BCA4605E0043518
:104B1800640808F1280849D0013714F0010FF6D0CD
:104B28005FFA87F93046494601F05EFAC0B210F0E4
:104B3800010F1CD0686DDBF8001001238360F27848
:104B48000B68012A01BF0069D8F87823C0F3120066
:104B5800C0EB020008BFC8F88803494630469847AA
:104B680096F80390B9F1010F00F03C81012000F0A4
:104B780002095FFA89F111B16A6D0220906000F0B4
:104B8800040E5FFA8EF313B1696D0420886000F09B
:104B9800080C5FFA8CF00028B9D0DBF8002030460A
:104BA800916888476B6D08229A60B0E7D14601206A
:104BB80079E640F2B80EC2F2000E3046DEF8001078
:104BC800CA699047F3684FF4801058610120CAE61B
:104BD800304600F0F7FFF4683046E46800F0E0FF84
:104BE800032800F0D280012040220523B070B28053
:104BF80063F38D24F3684FF40051DC6001205961A0
:104C0800A8E630694368002423F001024260214687
:104C1800304600F03BFE75786DB106F1140223466C
:104C2800FF2152F8045FD06BA960816096F801E01B
:104C380001337345F5D30125336965F30F040F225A
:104C48004FF0FF312F2065F31F449961DC615A61F1
:104C5800186119686FF30A111960304601F0D6F926
:104C680040F2B80CC2F2000CF268DCF800304FF4E5
:104C780080505061196930468847284661E6F368D4
:104C88009D6925F010049C611C6AC4F34342022A02
:104C980004F00F055BD0062A11D106F5B96130463C
:104CA800082205EB850500F00FFB06EBC50CC4F3E5
:104CB8000A14DCF88813F3686018CCF8880398693C
:104CC80040F010029A61012032E640F2B80EC2F2BA
:104CD800000E3046DEF80030DA689047F1680820A8
:104CE800486101201DE640F2B80EC2F2000E3046BF
:104CF800DEF800305A6990473169F36889684FF4E3
:104D080000625A61B07AB0B111F0010F13D0D6F831
:104D18000C311A6842F00101196018684FF46D4CA3
:104D2800CEF2000C40F003021A60DCF8101041F0DB
:104D38000600CCF810000120ECE5D6F80C31D6F8C6
:104D48000C116FF341036FF300030B60C6E547F6E0
:104D5800F07204EA02000028B1D005EB850306EBE7
:104D6800C305C4F30A142246D5F87C13304600F074
:104D7800ABFAD5F87C23D5F88813F36810196418B2
:104D8800C5F87C03C5F8884399E700214FF4007EF5
:104D98000920B170A6F804E060F38D242AE7009D8D
:104DA800586B2968BA69012505FA0BFE20EA0E003E
:104DB80058634B68956040463146984798F8039089
:104DC800A9457FF417AEBBF1000F04D198F811C1C3
:104DD800BCF1040F01D04D460CE6404601F016F92F
:104DE8004D4607E627B996F811C1BCF1050F01D069
:104DF8004846BCE6304601F009F94846B7E600BF28
:104E08002DE9F047044600F097FA67784FF0010E55
:104E1800002284F812E184F81321002F00F02D817C
:104E2800781E4FF0400CBE4584F819E184F818212B
:104E3800A4F81E2184F81B21C4F820C1C4F8242139
:104E4800C4F82C2100F00300714604F128037DD238
:104E5800B0B3012822D0022810D083F819E183F8D2
:104E680018E1A3F81EE183F81B21C3F820C1C3F899
:104E78002421C3F82C21022104F1500383F81811CE
:104E8800A3F81E1183F819E183F81B21C3F820C188
:104E9800C3F82421C3F82C210131283383F81811D1
:104EA800A3F81E11013183F819E183F81B21C3F817
:104EB80020C1C3F82421C3F82C212833B94245D294
:104EC80001F1010801F1030901F1020A83F818113F
:104ED800A3F81E11043103F1280603F1500583F8E5
:104EE80019E183F81B21C3F820C1C3F82421C3F8B2
:104EF8002C2183F841E183F84081A3F8468183F8A7
:104F08004321C3F848C1C3F84C21C3F8542183F89E
:104F180069E183F868A1A3F86EA183F86B21C3F84F
:104F280070C1C3F87421C3F87C2183F891E183F838
:104F38009091A3F8969183F89321C3F898C1C3F888
:104F48009C21C3F8A421A033B942B9D3012100237D
:104F58007A1E4FF0400EB94202F0030084F8713314
:104F680084F87033A4F8763384F87333C4F878E39C
:104F7800C4F87C33C4F8843304F128027DD2B0B37A
:104F8800012822D0022810D082F87013A2F87613D4
:104F980082F8713382F87333C2F878E3C2F87C334D
:104FA800C2F88433022104F1500282F87013A2F887
:104FB800761382F8713382F87333C2F878E3C2F853
:104FC8007C33C2F884330131283282F87013A2F896
:104FD8007613013182F8713382F87333C2F878E3BB
:104FE800C2F87C33C2F884332832B94245D201F181
:104FF800010C01F1030801F1020982F87013A2F80B
:105008007613043102F1280602F1500582F8713353
:1050180082F87333C2F878E3C2F87C33C2F8843379
:1050280082F8993382F898C3A2F89EC382F89B331A
:10503800C2F8A0E3C2F8A433C2F8AC3382F8C13393
:1050480082F8C093A2F8C69382F8C333C2F8C8E3C3
:10505800C2F8CC33C2F8D43382F8E93382F8E88353
:10506800A2F8EE8382F8EB33C2F8F0E3C2F8F43327
:10507800C2F8FC33A032B942B9D3204600F0FEFB97
:10508800204600F09DFA0021204600F067FC2046EB
:1050980000F088FC2046BDE8F04700F0E7BB00BF01
:1050A80038B501F07F05CCB205EB850100EBC101F5
:1050B80014F0800F14BF01F58C7101F55C71EDB22D
:1050C800E4090D704C708A60CB7004B1CD80022B5E
:1050D80001D100230B7100F08BFD002038BD00BF0B
:1050E80001F07F0208B5CBB202EB820113F0800F0A
:1050F80000EBC10114BF01F58C7101F55C71DB098E
:105108000A704B7000F0AAFD002008BDF8B501F048
:105118007F0606EB8605EC0005190027F6B285F830
:10512800706385F8717390F803E0C5F88433BEF1B5
:10513800010F04F55C7408BFF6B2C5F87C23C5F806
:10514800887300EB040108BFC5F880231EB100F086
:10515800A9FD0020F8BD00F07BFE0020F8BD00BFCF
:1051680070B501F07F0505EB8504E600841906F5A6
:105178008C768119C4F824210126C4F8282100223C
:1051880084F8196184F81851C4F83021C4F82C3116
:105198001DB100F087FD002070BD00F059FE002011
:1051A80070BD00BF10B5CCB214F0800F17BF01F06E
:1051B8007F0101EB810301EB810300EBC30309BF0E
:1051C80000EBC30303F58C7303F55C7301F07F01F7
:1051D800E209012419709C705A70194600F0C2FE49
:1051E800002010BDCAB212F0800F17BF01F07F0176
:1051F80001EB810301EB810300EBC3030ABF00EB62
:10520800C30303F58C7303F55C7310B508BF01F095
:105218007F010024D20919709C705A70194600F059
:10522800C1FE204610BD00BF11F0800F08B503D1A4
:1052380000F062FB002008BD01F07F0100F026FBB2
:10524800002008BD03690022186861F30A120243AE
:105258001A60704730B4C478002C31D100EB82005A
:1052680003339B10D0F8D0202AD051F8040B1060DB
:1052780001205C1E834204F0030421D98CB1012C67
:1052880009D0022C03D051F8044B0220146051F8C5
:10529800044B0130146051F8044B01308342146010
:1052A8000ED98C4604305CF8045B15604D681560B7
:1052B800DCF804401460CC68103183421460F0D8E4
:1052C800002030BC704700BF0332921070B4D0F891
:1052D800D0002ED004680B46551E43F8044B012419
:1052E800A24205F0030522D995B1012D0AD0022D5D
:1052F8001CBF046843F8044B056818BF022443F830
:10530800045B013405680134A24243F8045B0ED9FA
:1053180005689C4604344CF8045B06685E600668C1
:10532800CCF804600568DD601033A242F0D801EBC8
:105338008201084670BC70472DE9F00F0123002652
:105348004022994284B0C6708370828000F0038145
:10535800002900F0D6800378477800934FF4006165
:10536800C6600161002F00F01F814FF460644FF4A4
:1053780088614FF48063039402910193024606F515
:10538800106142F8181F01217C1E06F53063B942EE
:10539800D36304F0030406F5126340D2E4B1012C90
:1053A80011D0022C08D0024606F5326442F81C3FA0
:1053B8000221D46306F5146342F8043F03F5007430
:1053C800D4630131203342F8043F013103F50074FE
:1053D8002033B942D46322D2B946B346824603F198
:1053E800400003F1200503F5007803F5087C03F17C
:1053F800600603F51077141D5360D060C2F8408032
:105408009560C2F844C09764043142F8106F03F500
:10541800187080334945D063E1D35E465046019AFF
:10542800029B00994261C0F8CC30002961D04F013D
:1054380006F5A064A7F1200102463F1906F5A4630A
:10544800BB4242F8904FC1F341111FD081B10129ED
:1054580009D002291EBF024642F8943F06F5A86308
:1054680042F8043F203342F8043F2033BB420DD0BA
:1054780003F12001536003F1600403F14005803318
:10548800BB429160D56042F8104FF1D1009A06F501
:1054980080561303A3F5805C9F19024606F58053D6
:1054A800BB4242F8D06FCCF3013122D091B101292F
:1054B8000AD002291EBF024642F8D43F03F58053A2
:1054C80042F8043F03F5805342F8043F03F5805344
:1054D800BB420ED003F58051536003F5405403F5E9
:1054E800005503F58043BB429160D56042F8104FE8
:1054F800F0D1039BC0F80C31002004B0BDE8F00FD8
:1055080070470C264FF46062062706700392C1723A
:1055180047704FF488640294039C029900964FF4F4
:1055280080620192C4F204040394019C00234FF4A6
:105538000062C4F204034FF4A06CC4F20401C4F284
:105548000404A0F806C002910194C4F204021E46A5
:10555800C360026112E74FF46064082603940427CD
:1055680002240670C17247700472039900964FF4C2
:1055780088624FF4806302920193C5F20001029C95
:10558800039101994FF400624FF0A0434FF4A07CBF
:10559800C5F20004C5F20001A0F806C0029401910A
:1055A800C5F200021E46D3E74FF460664FF48861E7
:1055B8004FF480620396029101923E460B4630E713
:1055C800F0B5037A0027012B83B004466DD0054659
:1055D800032055F80C1FCB6843F04006CE600097B7
:1055E800FBF71AFEE36818694FF454660090C0F29E
:1055F800030600990029C0F2B7800320FBF70CFED0
:105608002B6818690090009A002AC0F2AD80032028
:10561800FBF702FE2B6819690091009A002AC0F274
:10562800A3800320FBF7F8FD2B681A690092009805
:105638000028C0F299800320FBF7EEFD2B6819695A
:10564800043E0091D5D194F808E0617ABEF1030FC9
:1056580014BF4FF480324FF4403242F4301309B192
:1056680042F47013E16814208B63FBF7F7FDE368DD
:10567800207ADA68032808BF42F48032DA6094F8A6
:1056880008C0BCF1030F00F0DA8094F803E0BEF123
:10569800010F07D1E3689868052161F3440040F0E1
:1056A80020029A60002003B0F0BDC268417A936B73
:1056B80067F3104309B143F480139363D6686FF31B
:1056C80086166FF3965646F010006FF3C3006FF31B
:1056D800C7106FF351406FF3D340D060002503200B
:1056E8000195FBF799FDE3681A694FF4546604F1D4
:1056F8000C050192C0F20306019800286EDB032016
:10570800FBF78AFD2B681A6901920199002965DB6C
:105718000320FBF781FD2B6819690191019A002A82
:105728005CDB0320FBF778FD2B681A69019201986E
:10573800002853DB0320FBF76FFD2B681969043E33
:105748000191D9D194F803C0BCF1010FAAD1052267
:1057580062F34407E36847F020079F6094F803E08A
:10576800BEF1010F96D09DE70099E26841F0010073
:1057780000900099116118694FF454620090C0F2CA
:105788000302009810F0010F15D0196900910098D4
:1057980010F0010F0FD019690091009810F0010F57
:1057A80009D019690091009810F0010F03D0186909
:1057B800043A0090E5D10320FBF72EFD94F808E0A9
:1057C800617ABEF1030F14BF4FF480324FF44032B8
:1057D80042F4301300293FF445AF41E70198E268ED
:1057E80040F0010101910198106119694FF4546268
:1057F8000191C0F20302019911F0010F15D0186947
:105808000190019911F0010F0FD0196901910198C8
:1058180010F0010F09D019690191019810F0010FDA
:1058280003D01869043A0190E5D10320FBF7F4FC92
:1058380094F803C0BCF1010F7FF434AF87E7186B0D
:10584800012161F39B606FF3D7502D2240F0805502
:1058580062F31645C8201D63FBF700FDE36845F4B5
:1058680000051D63C820FBF7F9FC0EE7C3689868BC
:1058780040F001029A600020704700BFC368986832
:1058880020F001029A600020704700BF00B583B085
:1058980000230193019A42F020030193019A61F3D6
:1058A8008A120192019BC268136111694FF4546313
:1058B8000191C0F2030315E011690191019810F0FC
:1058C800200F13D010690190019911F0200F0DD00D
:1058D80010690190019911F0200F07D01169043B5C
:1058E800019103D0019810F0200FE5D10320FBF7B8
:1058F80093FC002003B000BD00B583B000230193E2
:10590800019941F010020192019BC268136111696B
:105918004FF454630191C0F2030315E0116901913A
:10592800019810F0100F13D010690190019911F02F
:10593800100F0DD010690190019911F0100F07D0C8
:105948001169043B019103D0019810F0100FE5D1C3
:105958000320FBF761FC002003B000BD08B5C26856
:10596800D3686FF35D736FF39E73012908BF43F02B
:10597800005302D009B943F080433220D360FBF7CB
:105988006DFC002008BD00BFC068436913F0010F1B
:1059980014BF002001207047C3685A6998691040F5
:1059A800704700BFF0B504460020D4F80C512169B7
:1059B80028600B6860F3CC230B60E37A012B83B07B
:1059C800024618BFE36800F0CC8000200190019ADD
:1059D80042F0200101910198102565F38A10019089
:1059E800019A1A6119694FF454620191C0F20302D5
:1059F80015E019690191019D15F0200F13D01D695B
:105A08000195019911F0200F0DD0196901910198A4
:105A180010F0200F07D01D69043A019503D00198B2
:105A280010F0200FE5D10320FBF7F6FB00230093CD
:105A38000098E36840F010010091009A1A611D690E
:105A48004FF454620095C0F2030215E01969009101
:105A5800009D15F0100F13D018690090009D15F0E7
:105A6800100F0DD01D690095009911F0100F07D087
:105A78001869043A009003D0009810F0100FE5D18F
:105A88000320FBF7C9FB256900224FF0FF312A618B
:105A98006A61A961EA616378002B31D004F11400CE
:105AA8001746FF2650F8043F1968C1F3076E0EF039
:105AB800800C5FFA8CF1002918BF4FF090411960F3
:105AC8001F619E60637801329342EBD8C3B1002214
